{
  "_format": "hh-sol-artifact-1",
  "contractName": "Lottery",
  "sourceName": "contracts/Lottery.sol",
  "abi": [
    {
      "inputs": [],
      "stateMutability": "nonpayable",
      "type": "constructor"
    },
    {
      "inputs": [],
      "name": "createRoom",
      "outputs": [],
      "stateMutability": "nonpayable",
      "type": "function"
    },
    {
      "inputs": [
        {
          "internalType": "uint256",
          "name": "roomId",
          "type": "uint256"
        }
      ],
      "name": "endLottery",
      "outputs": [],
      "stateMutability": "nonpayable",
      "type": "function"
    },
    {
      "inputs": [
        {
          "internalType": "uint256",
          "name": "roomId",
          "type": "uint256"
        }
      ],
      "name": "enterLottery",
      "outputs": [],
      "stateMutability": "payable",
      "type": "function"
    },
    {
      "inputs": [
        {
          "internalType": "uint256",
          "name": "roomId",
          "type": "uint256"
        }
      ],
      "name": "getPlayers",
      "outputs": [
        {
          "internalType": "address[]",
          "name": "",
          "type": "address[]"
        }
      ],
      "stateMutability": "view",
      "type": "function"
    },
    {
      "inputs": [
        {
          "internalType": "uint256",
          "name": "roomId",
          "type": "uint256"
        }
      ],
      "name": "getPreviousWinners",
      "outputs": [
        {
          "internalType": "address[]",
          "name": "",
          "type": "address[]"
        }
      ],
      "stateMutability": "view",
      "type": "function"
    },
    {
      "inputs": [
        {
          "internalType": "uint256",
          "name": "roomId",
          "type": "uint256"
        }
      ],
      "name": "getTotalBalance",
      "outputs": [
        {
          "internalType": "uint256",
          "name": "",
          "type": "uint256"
        }
      ],
      "stateMutability": "view",
      "type": "function"
    },
    {
      "inputs": [
        {
          "internalType": "uint256",
          "name": "roomId",
          "type": "uint256"
        }
      ],
      "name": "getWinner",
      "outputs": [
        {
          "internalType": "address",
          "name": "",
          "type": "address"
        }
      ],
      "stateMutability": "view",
      "type": "function"
    },
    {
      "inputs": [
        {
          "internalType": "uint256",
          "name": "roomId",
          "type": "uint256"
        }
      ],
      "name": "isRoomActive",
      "outputs": [
        {
          "internalType": "bool",
          "name": "",
          "type": "bool"
        }
      ],
      "stateMutability": "view",
      "type": "function"
    },
    {
      "inputs": [],
      "name": "minimumEntryAmount",
      "outputs": [
        {
          "internalType": "uint256",
          "name": "",
          "type": "uint256"
        }
      ],
      "stateMutability": "view",
      "type": "function"
    },
    {
      "inputs": [],
      "name": "roomCount",
      "outputs": [
        {
          "internalType": "uint256",
          "name": "",
          "type": "uint256"
        }
      ],
      "stateMutability": "view",
      "type": "function"
    },
    {
      "inputs": [
        {
          "internalType": "uint256",
          "name": "",
          "type": "uint256"
        }
      ],
      "name": "rooms",
      "outputs": [
        {
          "internalType": "address",
          "name": "owner",
          "type": "address"
        },
        {
          "internalType": "address",
          "name": "winner",
          "type": "address"
        },
        {
          "internalType": "uint256",
          "name": "totalBalance",
          "type": "uint256"
        },
        {
          "internalType": "bool",
          "name": "isActive",
          "type": "bool"
        }
      ],
      "stateMutability": "view",
      "type": "function"
    },
    {
      "inputs": [
        {
          "internalType": "uint256",
          "name": "roomId",
          "type": "uint256"
        }
      ],
      "name": "startLottery",
      "outputs": [],
      "stateMutability": "nonpayable",
      "type": "function"
    }
  ],
  "bytecode": "0x608060405234801561001057600080fd5b5067016345785d8a00006002819055506116c98061002f6000396000f3fe6080604052600436106100a75760003560e01c8063460e204911610064578063460e2049146101b0578063536fe77d146101ed5780636be3da221461022a5780638bc4a5a514610267578063c6bec93a146102a4578063df93a4e3146102cd576100a7565b80631bae0ac8146100ac5780633739e769146100ec5780633be272aa146101155780633e94b8fd1461012c5780633fd43098146101575780634129b2c914610173575b600080fd5b3480156100b857600080fd5b506100d360048036038101906100ce9190610fc4565b6102f8565b6040516100e3949392919061105c565b60405180910390f35b3480156100f857600080fd5b50610113600480360381019061010e9190610fc4565b610375565b005b34801561012157600080fd5b5061012a6107cd565b005b34801561013857600080fd5b50610141610972565b60405161014e91906110a1565b60405180910390f35b610171600480360381019061016c9190610fc4565b610978565b005b34801561017f57600080fd5b5061019a60048036038101906101959190610fc4565b610bd1565b6040516101a791906110bc565b60405180910390f35b3480156101bc57600080fd5b506101d760048036038101906101d29190610fc4565b610c10565b6040516101e49190611195565b60405180910390f35b3480156101f957600080fd5b50610214600480360381019061020f9190610fc4565b610cb3565b60405161022191906111b7565b60405180910390f35b34801561023657600080fd5b50610251600480360381019061024c9190610fc4565b610cdf565b60405161025e9190611195565b60405180910390f35b34801561027357600080fd5b5061028e60048036038101906102899190610fc4565b610d82565b60405161029b91906110a1565b60405180910390f35b3480156102b057600080fd5b506102cb60048036038101906102c69190610fc4565b610da1565b005b3480156102d957600080fd5b506102e2610edc565b6040516102ef91906110a1565b60405180910390f35b60006020528060005260406000206000915090508060000160009054906101000a900473ffffffffffffffffffffffffffffffffffffffff16908060020160009054906101000a900473ffffffffffffffffffffffffffffffffffffffff16908060030154908060050160009054906101000a900460ff16905084565b8060008082815260200190815260200160002060000160009054906101000a900473ffffffffffffffffffffffffffffffffffffffff1673ffffffffffffffffffffffffffffffffffffffff163373ffffffffffffffffffffffffffffffffffffffff1614610419576040517f08c379a000000000000000000000000000000000000000000000000000000000815260040161041090611255565b60405180910390fd5b8160008082815260200190815260200160002060050160009054906101000a900460ff1661047c576040517f08c379a0000000000000000000000000000000000000000000000000000000008152600401610473906112c1565b60405180910390fd5b600080600085815260200190815260200160002060010180549050116104d7576040517f08c379a00000000000000000000000000000000000000000000000000000000081526004016104ce9061132d565b60405180910390fd5b600080600085815260200190815260200160002060010180549050424460405160200161050592919061136e565b6040516020818303038152906040528051906020012060001c61052891906113c9565b90506000808581526020019081526020016000206001018181548110610551576105506113fa565b5b9060005260206000200160009054906101000a900473ffffffffffffffffffffffffffffffffffffffff1660008086815260200190815260200160002060020160006101000a81548173ffffffffffffffffffffffffffffffffffffffff021916908373ffffffffffffffffffffffffffffffffffffffff16021790555060008085815260200190815260200160002060020160009054906101000a900473ffffffffffffffffffffffffffffffffffffffff1673ffffffffffffffffffffffffffffffffffffffff166108fc600080878152602001908152602001600020600301549081150290604051600060405180830381858888f1935050505015801561065f573d6000803e3d6000fd5b5060008085815260200190815260200160002060040160008086815260200190815260200160002060020160009054906101000a900473ffffffffffffffffffffffffffffffffffffffff169080600181540180825580915050600190039060005260206000200160009091909190916101000a81548173ffffffffffffffffffffffffffffffffffffffff021916908373ffffffffffffffffffffffffffffffffffffffff160217905550600067ffffffffffffffff81111561072657610725611429565b5b6040519080825280602002602001820160405280156107545781602001602082028036833780820191505090505b50600080868152602001908152602001600020600101908051906020019061077d929190610ee2565b50600080600086815260200190815260200160002060030181905550600080600086815260200190815260200160002060050160006101000a81548160ff02191690831515021790555050505050565b600160008154809291906107e090611487565b9190505550600080600060015481526020019081526020016000209050338160000160006101000a81548173ffffffffffffffffffffffffffffffffffffffff021916908373ffffffffffffffffffffffffffffffffffffffff160217905550600067ffffffffffffffff81111561085b5761085a611429565b5b6040519080825280602002602001820160405280156108895781602001602082028036833780820191505090505b508160010190805190602001906108a1929190610ee2565b5060008160020160006101000a81548173ffffffffffffffffffffffffffffffffffffffff021916908373ffffffffffffffffffffffffffffffffffffffff16021790555060008160030181905550600067ffffffffffffffff81111561090b5761090a611429565b5b6040519080825280602002602001820160405280156109395781602001602082028036833780820191505090505b50816004019080519060200190610951929190610ee2565b5060008160050160006101000a81548160ff02191690831515021790555050565b60025481565b8060008082815260200190815260200160002060050160009054906101000a900460ff166109db576040517f08c379a00000000000000000000000000000000000000000000000000000000081526004016109d2906112c1565b60405180910390fd5b600254341015610a20576040517f08c379a0000000000000000000000000000000000000000000000000000000008152600401610a1790611541565b60405180910390fd5b60008083815260200190815260200160002060060160003373ffffffffffffffffffffffffffffffffffffffff1673ffffffffffffffffffffffffffffffffffffffff16815260200190815260200160002060009054906101000a900460ff1615610ac0576040517f08c379a0000000000000000000000000000000000000000000000000000000008152600401610ab7906115d3565b60405180910390fd5b600080838152602001908152602001600020600101339080600181540180825580915050600190039060005260206000200160009091909190916101000a81548173ffffffffffffffffffffffffffffffffffffffff021916908373ffffffffffffffffffffffffffffffffffffffff160217905550346000808481526020019081526020016000206003016000828254610b5b91906115f3565b92505081905550600160008084815260200190815260200160002060060160003373ffffffffffffffffffffffffffffffffffffffff1673ffffffffffffffffffffffffffffffffffffffff16815260200190815260200160002060006101000a81548160ff0219169083151502179055505050565b600080600083815260200190815260200160002060020160009054906101000a900473ffffffffffffffffffffffffffffffffffffffff169050919050565b6060600080838152602001908152602001600020600101805480602002602001604051908101604052809291908181526020018280548015610ca757602002820191906000526020600020905b8160009054906101000a900473ffffffffffffffffffffffffffffffffffffffff1673ffffffffffffffffffffffffffffffffffffffff1681526020019060010190808311610c5d575b50505050509050919050565b600080600083815260200190815260200160002060050160009054906101000a900460ff169050919050565b6060600080838152602001908152602001600020600401805480602002602001604051908101604052809291908181526020018280548015610d7657602002820191906000526020600020905b8160009054906101000a900473ffffffffffffffffffffffffffffffffffffffff1673ffffffffffffffffffffffffffffffffffffffff1681526020019060010190808311610d2c575b50505050509050919050565b6000806000838152602001908152602001600020600301549050919050565b8060008082815260200190815260200160002060000160009054906101000a900473ffffffffffffffffffffffffffffffffffffffff1673ffffffffffffffffffffffffffffffffffffffff163373ffffffffffffffffffffffffffffffffffffffff1614610e45576040517f08c379a0000000000000000000000000000000000000000000000000000000008152600401610e3c90611255565b60405180910390fd5b8160008082815260200190815260200160002060050160009054906101000a900460ff1615610ea9576040517f08c379a0000000000000000000000000000000000000000000000000000000008152600401610ea090611673565b60405180910390fd5b600160008085815260200190815260200160002060050160006101000a81548160ff021916908315150217905550505050565b60015481565b828054828255906000526020600020908101928215610f5b579160200282015b82811115610f5a5782518260006101000a81548173ffffffffffffffffffffffffffffffffffffffff021916908373ffffffffffffffffffffffffffffffffffffffff16021790555091602001919060010190610f02565b5b509050610f689190610f6c565b5090565b5b80821115610f85576000816000905550600101610f6d565b5090565b600080fd5b6000819050919050565b610fa181610f8e565b8114610fac57600080fd5b50565b600081359050610fbe81610f98565b92915050565b600060208284031215610fda57610fd9610f89565b5b6000610fe884828501610faf565b91505092915050565b600073ffffffffffffffffffffffffffffffffffffffff82169050919050565b600061101c82610ff1565b9050919050565b61102c81611011565b82525050565b61103b81610f8e565b82525050565b60008115159050919050565b61105681611041565b82525050565b60006080820190506110716000830187611023565b61107e6020830186611023565b61108b6040830185611032565b611098606083018461104d565b95945050505050565b60006020820190506110b66000830184611032565b92915050565b60006020820190506110d16000830184611023565b92915050565b600081519050919050565b600082825260208201905092915050565b6000819050602082019050919050565b61110c81611011565b82525050565b600061111e8383611103565b60208301905092915050565b6000602082019050919050565b6000611142826110d7565b61114c81856110e2565b9350611157836110f3565b8060005b8381101561118857815161116f8882611112565b975061117a8361112a565b92505060018101905061115b565b5085935050505092915050565b600060208201905081810360008301526111af8184611137565b905092915050565b60006020820190506111cc600083018461104d565b92915050565b600082825260208201905092915050565b7f596f7520617265206e6f7420746865206f776e6572206f66207468697320726f60008201527f6f6d000000000000000000000000000000000000000000000000000000000000602082015250565b600061123f6022836111d2565b915061124a826111e3565b604082019050919050565b6000602082019050818103600083015261126e81611232565b9050919050565b7f526f6f6d206973206e6f74206163746976650000000000000000000000000000600082015250565b60006112ab6012836111d2565b91506112b682611275565b602082019050919050565b600060208201905081810360008301526112da8161129e565b9050919050565b7f4e6f20706c617965727320696e2074686520726f6f6d00000000000000000000600082015250565b60006113176016836111d2565b9150611322826112e1565b602082019050919050565b600060208201905081810360008301526113468161130a565b9050919050565b6000819050919050565b61136861136382610f8e565b61134d565b82525050565b600061137a8285611357565b60208201915061138a8284611357565b6020820191508190509392505050565b7f4e487b7100000000000000000000000000000000000000000000000000000000600052601260045260246000fd5b60006113d482610f8e565b91506113df83610f8e565b9250826113ef576113ee61139a565b5b828206905092915050565b7f4e487b7100000000000000000000000000000000000000000000000000000000600052603260045260246000fd5b7f4e487b7100000000000000000000000000000000000000000000000000000000600052604160045260246000fd5b7f4e487b7100000000000000000000000000000000000000000000000000000000600052601160045260246000fd5b600061149282610f8e565b91507fffffffffffffffffffffffffffffffffffffffffffffffffffffffffffffffff82036114c4576114c3611458565b5b600182019050919050565b7f4d696e696d756d20302e312045544820726571756972656420746f20656e746560008201527f7200000000000000000000000000000000000000000000000000000000000000602082015250565b600061152b6021836111d2565b9150611536826114cf565b604082019050919050565b6000602082019050818103600083015261155a8161151e565b9050919050565b7f596f75206861766520616c726561647920656e746572656420746865206c6f7460008201527f7465727900000000000000000000000000000000000000000000000000000000602082015250565b60006115bd6024836111d2565b91506115c882611561565b604082019050919050565b600060208201905081810360008301526115ec816115b0565b9050919050565b60006115fe82610f8e565b915061160983610f8e565b925082820190508082111561162157611620611458565b5b92915050565b7f526f6f6d20697320616c72656164792061637469766500000000000000000000600082015250565b600061165d6016836111d2565b915061166882611627565b602082019050919050565b6000602082019050818103600083015261168c81611650565b905091905056fea26469706673582212202683c7c752fe861bddc154bc90d82800141c738f47efd6ac6c373db84ea60a7364736f6c63430008120033",
  "linkReferences": {},
  "deployedLinkReferences": {}
}