{
  "_format": "hh-sol-artifact-1",
  "contractName": "Lottery",
  "sourceName": "contracts/Lottery.sol",
  "abi": [
    {
      "inputs": [],
      "stateMutability": "nonpayable",
      "type": "constructor"
    },
    {
      "inputs": [],
      "name": "createRoom",
      "outputs": [],
      "stateMutability": "nonpayable",
      "type": "function"
    },
    {
      "inputs": [
        {
          "internalType": "uint256",
          "name": "roomId",
          "type": "uint256"
        }
      ],
      "name": "endLottery",
      "outputs": [],
      "stateMutability": "nonpayable",
      "type": "function"
    },
    {
      "inputs": [
        {
          "internalType": "uint256",
          "name": "roomId",
          "type": "uint256"
        }
      ],
      "name": "enterLottery",
      "outputs": [],
      "stateMutability": "payable",
      "type": "function"
    },
    {
      "inputs": [
        {
          "internalType": "uint256",
          "name": "roomId",
          "type": "uint256"
        }
      ],
      "name": "getPlayers",
      "outputs": [
        {
          "internalType": "address[]",
          "name": "",
          "type": "address[]"
        }
      ],
      "stateMutability": "view",
      "type": "function"
    },
    {
      "inputs": [
        {
          "internalType": "uint256",
          "name": "roomId",
          "type": "uint256"
        }
      ],
      "name": "getPreviousWinners",
      "outputs": [
        {
          "internalType": "address[]",
          "name": "",
          "type": "address[]"
        }
      ],
      "stateMutability": "view",
      "type": "function"
    },
    {
      "inputs": [
        {
          "internalType": "uint256",
          "name": "roomId",
          "type": "uint256"
        }
      ],
      "name": "getTotalBalance",
      "outputs": [
        {
          "internalType": "uint256",
          "name": "",
          "type": "uint256"
        }
      ],
      "stateMutability": "view",
      "type": "function"
    },
    {
      "inputs": [
        {
          "internalType": "uint256",
          "name": "roomId",
          "type": "uint256"
        }
      ],
      "name": "getWinner",
      "outputs": [
        {
          "internalType": "address",
          "name": "",
          "type": "address"
        }
      ],
      "stateMutability": "view",
      "type": "function"
    },
    {
      "inputs": [
        {
          "internalType": "uint256",
          "name": "roomId",
          "type": "uint256"
        }
      ],
      "name": "isRoomActive",
      "outputs": [
        {
          "internalType": "bool",
          "name": "",
          "type": "bool"
        }
      ],
      "stateMutability": "view",
      "type": "function"
    },
    {
      "inputs": [],
      "name": "minimumEntryAmount",
      "outputs": [
        {
          "internalType": "uint256",
          "name": "",
          "type": "uint256"
        }
      ],
      "stateMutability": "view",
      "type": "function"
    },
    {
      "inputs": [],
      "name": "roomCount",
      "outputs": [
        {
          "internalType": "uint256",
          "name": "",
          "type": "uint256"
        }
      ],
      "stateMutability": "view",
      "type": "function"
    },
    {
      "inputs": [
        {
          "internalType": "uint256",
          "name": "",
          "type": "uint256"
        }
      ],
      "name": "rooms",
      "outputs": [
        {
          "internalType": "address",
          "name": "owner",
          "type": "address"
        },
        {
          "internalType": "address",
          "name": "winner",
          "type": "address"
        },
        {
          "internalType": "uint256",
          "name": "totalBalance",
          "type": "uint256"
        },
        {
          "internalType": "bool",
          "name": "isActive",
          "type": "bool"
        }
      ],
      "stateMutability": "view",
      "type": "function"
    },
    {
      "inputs": [
        {
          "internalType": "uint256",
          "name": "roomId",
          "type": "uint256"
        }
      ],
      "name": "startLottery",
      "outputs": [],
      "stateMutability": "nonpayable",
      "type": "function"
    }
  ],
  "bytecode": "0x608060405234801561001057600080fd5b5067016345785d8a000060028190555061175d8061002f6000396000f3fe6080604052600436106100a75760003560e01c8063460e204911610064578063460e2049146101b0578063536fe77d146101ed5780636be3da221461022a5780638bc4a5a514610267578063c6bec93a146102a4578063df93a4e3146102cd576100a7565b80631bae0ac8146100ac5780633739e769146100ec5780633be272aa146101155780633e94b8fd1461012c5780633fd43098146101575780634129b2c914610173575b600080fd5b3480156100b857600080fd5b506100d360048036038101906100ce9190611058565b6102f8565b6040516100e394939291906110f0565b60405180910390f35b3480156100f857600080fd5b50610113600480360381019061010e9190611058565b610375565b005b34801561012157600080fd5b5061012a610840565b005b34801561013857600080fd5b506101416109e5565b60405161014e9190611135565b60405180910390f35b610171600480360381019061016c9190611058565b6109eb565b005b34801561017f57600080fd5b5061019a60048036038101906101959190611058565b610c44565b6040516101a79190611150565b60405180910390f35b3480156101bc57600080fd5b506101d760048036038101906101d29190611058565b610c83565b6040516101e49190611229565b60405180910390f35b3480156101f957600080fd5b50610214600480360381019061020f9190611058565b610d26565b604051610221919061124b565b60405180910390f35b34801561023657600080fd5b50610251600480360381019061024c9190611058565b610d52565b60405161025e9190611229565b60405180910390f35b34801561027357600080fd5b5061028e60048036038101906102899190611058565b610df5565b60405161029b9190611135565b60405180910390f35b3480156102b057600080fd5b506102cb60048036038101906102c69190611058565b610e14565b005b3480156102d957600080fd5b506102e2610f4f565b6040516102ef9190611135565b60405180910390f35b60006020528060005260406000206000915090508060000160009054906101000a900473ffffffffffffffffffffffffffffffffffffffff16908060020160009054906101000a900473ffffffffffffffffffffffffffffffffffffffff16908060030154908060050160009054906101000a900460ff16905084565b8060008082815260200190815260200160002060000160009054906101000a900473ffffffffffffffffffffffffffffffffffffffff1673ffffffffffffffffffffffffffffffffffffffff163373ffffffffffffffffffffffffffffffffffffffff1614610419576040517f08c379a0000000000000000000000000000000000000000000000000000000008152600401610410906112e9565b60405180910390fd5b8160008082815260200190815260200160002060050160009054906101000a900460ff1661047c576040517f08c379a000000000000000000000000000000000000000000000000000000000815260040161047390611355565b60405180910390fd5b600080600085815260200190815260200160002060010180549050116104d7576040517f08c379a00000000000000000000000000000000000000000000000000000000081526004016104ce906113c1565b60405180910390fd5b6000806000858152602001908152602001600020600101805490504244604051602001610505929190611402565b6040516020818303038152906040528051906020012060001c610528919061145d565b905060008085815260200190815260200160002060010181815481106105515761055061148e565b5b9060005260206000200160009054906101000a900473ffffffffffffffffffffffffffffffffffffffff1660008086815260200190815260200160002060020160006101000a81548173ffffffffffffffffffffffffffffffffffffffff021916908373ffffffffffffffffffffffffffffffffffffffff16021790555060008085815260200190815260200160002060020160009054906101000a900473ffffffffffffffffffffffffffffffffffffffff1673ffffffffffffffffffffffffffffffffffffffff166108fc600080878152602001908152602001600020600301549081150290604051600060405180830381858888f1935050505015801561065f573d6000803e3d6000fd5b5060008085815260200190815260200160002060040160008086815260200190815260200160002060020160009054906101000a900473ffffffffffffffffffffffffffffffffffffffff169080600181540180825580915050600190039060005260206000200160009091909190916101000a81548173ffffffffffffffffffffffffffffffffffffffff021916908373ffffffffffffffffffffffffffffffffffffffff16021790555060005b600080868152602001908152602001600020600101805490508110156107fd5760008060008781526020019081526020016000206006016000806000898152602001908152602001600020600101848154811061076e5761076d61148e565b5b9060005260206000200160009054906101000a900473ffffffffffffffffffffffffffffffffffffffff1673ffffffffffffffffffffffffffffffffffffffff1673ffffffffffffffffffffffffffffffffffffffff16815260200190815260200160002060006101000a81548160ff02191690831515021790555080806107f5906114ec565b91505061070e565b50600080858152602001908152602001600020600101600061081f9190610f55565b60008060008681526020019081526020016000206003018190555050505050565b60016000815480929190610853906114ec565b9190505550600080600060015481526020019081526020016000209050338160000160006101000a81548173ffffffffffffffffffffffffffffffffffffffff021916908373ffffffffffffffffffffffffffffffffffffffff160217905550600067ffffffffffffffff8111156108ce576108cd611534565b5b6040519080825280602002602001820160405280156108fc5781602001602082028036833780820191505090505b50816001019080519060200190610914929190610f76565b5060008160020160006101000a81548173ffffffffffffffffffffffffffffffffffffffff021916908373ffffffffffffffffffffffffffffffffffffffff16021790555060008160030181905550600067ffffffffffffffff81111561097e5761097d611534565b5b6040519080825280602002602001820160405280156109ac5781602001602082028036833780820191505090505b508160040190805190602001906109c4929190610f76565b5060008160050160006101000a81548160ff02191690831515021790555050565b60025481565b8060008082815260200190815260200160002060050160009054906101000a900460ff16610a4e576040517f08c379a0000000000000000000000000000000000000000000000000000000008152600401610a4590611355565b60405180910390fd5b600254341015610a93576040517f08c379a0000000000000000000000000000000000000000000000000000000008152600401610a8a906115d5565b60405180910390fd5b60008083815260200190815260200160002060060160003373ffffffffffffffffffffffffffffffffffffffff1673ffffffffffffffffffffffffffffffffffffffff16815260200190815260200160002060009054906101000a900460ff1615610b33576040517f08c379a0000000000000000000000000000000000000000000000000000000008152600401610b2a90611667565b60405180910390fd5b600080838152602001908152602001600020600101339080600181540180825580915050600190039060005260206000200160009091909190916101000a81548173ffffffffffffffffffffffffffffffffffffffff021916908373ffffffffffffffffffffffffffffffffffffffff160217905550346000808481526020019081526020016000206003016000828254610bce9190611687565b92505081905550600160008084815260200190815260200160002060060160003373ffffffffffffffffffffffffffffffffffffffff1673ffffffffffffffffffffffffffffffffffffffff16815260200190815260200160002060006101000a81548160ff0219169083151502179055505050565b600080600083815260200190815260200160002060020160009054906101000a900473ffffffffffffffffffffffffffffffffffffffff169050919050565b6060600080838152602001908152602001600020600101805480602002602001604051908101604052809291908181526020018280548015610d1a57602002820191906000526020600020905b8160009054906101000a900473ffffffffffffffffffffffffffffffffffffffff1673ffffffffffffffffffffffffffffffffffffffff1681526020019060010190808311610cd0575b50505050509050919050565b600080600083815260200190815260200160002060050160009054906101000a900460ff169050919050565b6060600080838152602001908152602001600020600401805480602002602001604051908101604052809291908181526020018280548015610de957602002820191906000526020600020905b8160009054906101000a900473ffffffffffffffffffffffffffffffffffffffff1673ffffffffffffffffffffffffffffffffffffffff1681526020019060010190808311610d9f575b50505050509050919050565b6000806000838152602001908152602001600020600301549050919050565b8060008082815260200190815260200160002060000160009054906101000a900473ffffffffffffffffffffffffffffffffffffffff1673ffffffffffffffffffffffffffffffffffffffff163373ffffffffffffffffffffffffffffffffffffffff1614610eb8576040517f08c379a0000000000000000000000000000000000000000000000000000000008152600401610eaf906112e9565b60405180910390fd5b8160008082815260200190815260200160002060050160009054906101000a900460ff1615610f1c576040517f08c379a0000000000000000000000000000000000000000000000000000000008152600401610f1390611707565b60405180910390fd5b600160008085815260200190815260200160002060050160006101000a81548160ff021916908315150217905550505050565b60015481565b5080546000825590600052602060002090810190610f739190611000565b50565b828054828255906000526020600020908101928215610fef579160200282015b82811115610fee5782518260006101000a81548173ffffffffffffffffffffffffffffffffffffffff021916908373ffffffffffffffffffffffffffffffffffffffff16021790555091602001919060010190610f96565b5b509050610ffc9190611000565b5090565b5b80821115611019576000816000905550600101611001565b5090565b600080fd5b6000819050919050565b61103581611022565b811461104057600080fd5b50565b6000813590506110528161102c565b92915050565b60006020828403121561106e5761106d61101d565b5b600061107c84828501611043565b91505092915050565b600073ffffffffffffffffffffffffffffffffffffffff82169050919050565b60006110b082611085565b9050919050565b6110c0816110a5565b82525050565b6110cf81611022565b82525050565b60008115159050919050565b6110ea816110d5565b82525050565b600060808201905061110560008301876110b7565b61111260208301866110b7565b61111f60408301856110c6565b61112c60608301846110e1565b95945050505050565b600060208201905061114a60008301846110c6565b92915050565b600060208201905061116560008301846110b7565b92915050565b600081519050919050565b600082825260208201905092915050565b6000819050602082019050919050565b6111a0816110a5565b82525050565b60006111b28383611197565b60208301905092915050565b6000602082019050919050565b60006111d68261116b565b6111e08185611176565b93506111eb83611187565b8060005b8381101561121c57815161120388826111a6565b975061120e836111be565b9250506001810190506111ef565b5085935050505092915050565b6000602082019050818103600083015261124381846111cb565b905092915050565b600060208201905061126060008301846110e1565b92915050565b600082825260208201905092915050565b7f596f7520617265206e6f7420746865206f776e6572206f66207468697320726f60008201527f6f6d000000000000000000000000000000000000000000000000000000000000602082015250565b60006112d3602283611266565b91506112de82611277565b604082019050919050565b60006020820190508181036000830152611302816112c6565b9050919050565b7f526f6f6d206973206e6f74206163746976650000000000000000000000000000600082015250565b600061133f601283611266565b915061134a82611309565b602082019050919050565b6000602082019050818103600083015261136e81611332565b9050919050565b7f4e6f20706c617965727320696e2074686520726f6f6d00000000000000000000600082015250565b60006113ab601683611266565b91506113b682611375565b602082019050919050565b600060208201905081810360008301526113da8161139e565b9050919050565b6000819050919050565b6113fc6113f782611022565b6113e1565b82525050565b600061140e82856113eb565b60208201915061141e82846113eb565b6020820191508190509392505050565b7f4e487b7100000000000000000000000000000000000000000000000000000000600052601260045260246000fd5b600061146882611022565b915061147383611022565b9250826114835761148261142e565b5b828206905092915050565b7f4e487b7100000000000000000000000000000000000000000000000000000000600052603260045260246000fd5b7f4e487b7100000000000000000000000000000000000000000000000000000000600052601160045260246000fd5b60006114f782611022565b91507fffffffffffffffffffffffffffffffffffffffffffffffffffffffffffffffff8203611529576115286114bd565b5b600182019050919050565b7f4e487b7100000000000000000000000000000000000000000000000000000000600052604160045260246000fd5b7f4d696e696d756d20302e312045544820726571756972656420746f20656e746560008201527f7200000000000000000000000000000000000000000000000000000000000000602082015250565b60006115bf602183611266565b91506115ca82611563565b604082019050919050565b600060208201905081810360008301526115ee816115b2565b9050919050565b7f596f75206861766520616c726561647920656e746572656420746865206c6f7460008201527f7465727900000000000000000000000000000000000000000000000000000000602082015250565b6000611651602483611266565b915061165c826115f5565b604082019050919050565b6000602082019050818103600083015261168081611644565b9050919050565b600061169282611022565b915061169d83611022565b92508282019050808211156116b5576116b46114bd565b5b92915050565b7f526f6f6d20697320616c72656164792061637469766500000000000000000000600082015250565b60006116f1601683611266565b91506116fc826116bb565b602082019050919050565b60006020820190508181036000830152611720816116e4565b905091905056fea2646970667358221220164174d1f2900e522d3b3f769a800b72c5ffca6331344c1b1a7301e051c786b664736f6c63430008120033",
  "linkReferences": {},
  "deployedLinkReferences": {}
}