{
  "_format": "hh-sol-artifact-1",
  "contractName": "Lottery",
  "sourceName": "contracts/Lottery.sol",
  "abi": [
    {
      "inputs": [],
      "stateMutability": "nonpayable",
      "type": "constructor"
    },
    {
      "anonymous": false,
      "inputs": [
        {
          "indexed": false,
          "internalType": "address",
          "name": "winner",
          "type": "address"
        },
        {
          "indexed": false,
          "internalType": "uint256",
          "name": "prizeAmount",
          "type": "uint256"
        }
      ],
      "name": "LotteryWinner",
      "type": "event"
    },
    {
      "inputs": [],
      "name": "drawWinner",
      "outputs": [],
      "stateMutability": "nonpayable",
      "type": "function"
    },
    {
      "inputs": [],
      "name": "enterLottery",
      "outputs": [],
      "stateMutability": "payable",
      "type": "function"
    },
    {
      "inputs": [],
      "name": "getPlayers",
      "outputs": [
        {
          "internalType": "address[]",
          "name": "",
          "type": "address[]"
        }
      ],
      "stateMutability": "view",
      "type": "function"
    },
    {
      "inputs": [],
      "name": "getWinner",
      "outputs": [
        {
          "internalType": "address",
          "name": "",
          "type": "address"
        }
      ],
      "stateMutability": "view",
      "type": "function"
    },
    {
      "inputs": [],
      "name": "minimumEntryAmount",
      "outputs": [
        {
          "internalType": "uint256",
          "name": "",
          "type": "uint256"
        }
      ],
      "stateMutability": "view",
      "type": "function"
    },
    {
      "inputs": [],
      "name": "owner",
      "outputs": [
        {
          "internalType": "address",
          "name": "",
          "type": "address"
        }
      ],
      "stateMutability": "view",
      "type": "function"
    },
    {
      "inputs": [
        {
          "internalType": "uint256",
          "name": "",
          "type": "uint256"
        }
      ],
      "name": "players",
      "outputs": [
        {
          "internalType": "address",
          "name": "",
          "type": "address"
        }
      ],
      "stateMutability": "view",
      "type": "function"
    },
    {
      "inputs": [],
      "name": "winner",
      "outputs": [
        {
          "internalType": "address",
          "name": "",
          "type": "address"
        }
      ],
      "stateMutability": "view",
      "type": "function"
    }
  ],
  "bytecode": "0x608060405234801561001057600080fd5b50336000806101000a81548173ffffffffffffffffffffffffffffffffffffffff021916908373ffffffffffffffffffffffffffffffffffffffff16021790555067016345785d8a0000600381905550610c918061006f6000396000f3fe60806040526004361061007b5760003560e01c8063b2185bb11161004e578063b2185bb11461012c578063c1af578514610143578063dfbf53ae1461014d578063f71d96cb146101785761007b565b80633e94b8fd146100805780638b5b9ccc146100ab5780638da5cb5b146100d65780638e7ea5b214610101575b600080fd5b34801561008c57600080fd5b506100956101b5565b6040516100a29190610765565b60405180910390f35b3480156100b757600080fd5b506100c06101bb565b6040516100cd9190610870565b60405180910390f35b3480156100e257600080fd5b506100eb610249565b6040516100f891906108a1565b60405180910390f35b34801561010d57600080fd5b5061011661026d565b60405161012391906108a1565b60405180910390f35b34801561013857600080fd5b50610141610297565b005b61014b610596565b005b34801561015957600080fd5b50610162610640565b60405161016f91906108a1565b60405180910390f35b34801561018457600080fd5b5061019f600480360381019061019a91906108ed565b610666565b6040516101ac91906108a1565b60405180910390f35b60035481565b6060600180548060200260200160405190810160405280929190818152602001828054801561023f57602002820191906000526020600020905b8160009054906101000a900473ffffffffffffffffffffffffffffffffffffffff1673ffffffffffffffffffffffffffffffffffffffff16815260200190600101908083116101f5575b5050505050905090565b60008054906101000a900473ffffffffffffffffffffffffffffffffffffffff1681565b6000600260009054906101000a900473ffffffffffffffffffffffffffffffffffffffff16905090565b60008054906101000a900473ffffffffffffffffffffffffffffffffffffffff1673ffffffffffffffffffffffffffffffffffffffff163373ffffffffffffffffffffffffffffffffffffffff1614610325576040517f08c379a000000000000000000000000000000000000000000000000000000000815260040161031c90610977565b60405180910390fd5b60004711610368576040517f08c379a000000000000000000000000000000000000000000000000000000000815260040161035f90610a09565b60405180910390fd5b6000600180549050116103b0576040517f08c379a00000000000000000000000000000000000000000000000000000000081526004016103a790610a75565b60405180910390fd5b600060018054905042446040516020016103cb929190610ab6565b6040516020818303038152906040528051906020012060001c6103ee9190610b11565b90506001818154811061040457610403610b42565b5b9060005260206000200160009054906101000a900473ffffffffffffffffffffffffffffffffffffffff16600260006101000a81548173ffffffffffffffffffffffffffffffffffffffff021916908373ffffffffffffffffffffffffffffffffffffffff160217905550600067ffffffffffffffff81111561048a57610489610b71565b5b6040519080825280602002602001820160405280156104b85781602001602082028036833780820191505090505b50600190805190602001906104ce9291906106a5565b50600260009054906101000a900473ffffffffffffffffffffffffffffffffffffffff1673ffffffffffffffffffffffffffffffffffffffff166108fc479081150290604051600060405180830381858888f19350505050158015610537573d6000803e3d6000fd5b507f275eaacf9e506f9c68b251c2f97cf723c4fb9a3b94e42a1dfb581543c135f0c0600260009054906101000a900473ffffffffffffffffffffffffffffffffffffffff164760405161058b929190610ba0565b60405180910390a150565b6003543410156105db576040517f08c379a00000000000000000000000000000000000000000000000000000000081526004016105d290610c3b565b60405180910390fd5b6001339080600181540180825580915050600190039060005260206000200160009091909190916101000a81548173ffffffffffffffffffffffffffffffffffffffff021916908373ffffffffffffffffffffffffffffffffffffffff160217905550565b600260009054906101000a900473ffffffffffffffffffffffffffffffffffffffff1681565b6001818154811061067657600080fd5b906000526020600020016000915054906101000a900473ffffffffffffffffffffffffffffffffffffffff1681565b82805482825590600052602060002090810192821561071e579160200282015b8281111561071d5782518260006101000a81548173ffffffffffffffffffffffffffffffffffffffff021916908373ffffffffffffffffffffffffffffffffffffffff160217905550916020019190600101906106c5565b5b50905061072b919061072f565b5090565b5b80821115610748576000816000905550600101610730565b5090565b6000819050919050565b61075f8161074c565b82525050565b600060208201905061077a6000830184610756565b92915050565b600081519050919050565b600082825260208201905092915050565b6000819050602082019050919050565b600073ffffffffffffffffffffffffffffffffffffffff82169050919050565b60006107d7826107ac565b9050919050565b6107e7816107cc565b82525050565b60006107f983836107de565b60208301905092915050565b6000602082019050919050565b600061081d82610780565b610827818561078b565b93506108328361079c565b8060005b8381101561086357815161084a88826107ed565b975061085583610805565b925050600181019050610836565b5085935050505092915050565b6000602082019050818103600083015261088a8184610812565b905092915050565b61089b816107cc565b82525050565b60006020820190506108b66000830184610892565b92915050565b600080fd5b6108ca8161074c565b81146108d557600080fd5b50565b6000813590506108e7816108c1565b92915050565b600060208284031215610903576109026108bc565b5b6000610911848285016108d8565b91505092915050565b600082825260208201905092915050565b7f596f7520617265206e6f7420746865206f776e65720000000000000000000000600082015250565b600061096160158361091a565b915061096c8261092b565b602082019050919050565b6000602082019050818103600083015261099081610954565b9050919050565b7f496e73756666696369656e742066756e647320696e2074686520636f6e74726160008201527f637420746f206472617720612077696e6e657200000000000000000000000000602082015250565b60006109f360338361091a565b91506109fe82610997565b604082019050919050565b60006020820190508181036000830152610a22816109e6565b9050919050565b7f4e6f20706c617965727320696e20746865206c6f747465727900000000000000600082015250565b6000610a5f60198361091a565b9150610a6a82610a29565b602082019050919050565b60006020820190508181036000830152610a8e81610a52565b9050919050565b6000819050919050565b610ab0610aab8261074c565b610a95565b82525050565b6000610ac28285610a9f565b602082019150610ad28284610a9f565b6020820191508190509392505050565b7f4e487b7100000000000000000000000000000000000000000000000000000000600052601260045260246000fd5b6000610b1c8261074c565b9150610b278361074c565b925082610b3757610b36610ae2565b5b828206905092915050565b7f4e487b7100000000000000000000000000000000000000000000000000000000600052603260045260246000fd5b7f4e487b7100000000000000000000000000000000000000000000000000000000600052604160045260246000fd5b6000604082019050610bb56000830185610892565b610bc26020830184610756565b9392505050565b7f4d696e696d756d20302e312045544820726571756972656420746f20656e746560008201527f7200000000000000000000000000000000000000000000000000000000000000602082015250565b6000610c2560218361091a565b9150610c3082610bc9565b604082019050919050565b60006020820190508181036000830152610c5481610c18565b905091905056fea2646970667358221220e9b7ad28853076ab2b1e6e7d509495201259d53649543028fa51d953086ca03c64736f6c63430008120033",
  "linkReferences": {},
  "deployedLinkReferences": {}
}